{
  "_format": "hh-sol-artifact-1",
  "contractName": "Blue",
  "sourceName": "contracts/Blue.sol",
  "abi": [
    {
      "inputs": [],
      "stateMutability": "nonpayable",
      "type": "constructor"
    },
    {
      "anonymous": false,
      "inputs": [
        {
          "indexed": true,
          "internalType": "address",
          "name": "owner",
          "type": "address"
        },
        {
          "indexed": true,
          "internalType": "address",
          "name": "spender",
          "type": "address"
        },
        {
          "indexed": false,
          "internalType": "uint256",
          "name": "value",
          "type": "uint256"
        }
      ],
      "name": "Approval",
      "type": "event"
    },
    {
      "anonymous": false,
      "inputs": [
        {
          "indexed": false,
          "internalType": "address",
          "name": "account",
          "type": "address"
        }
      ],
      "name": "Paused",
      "type": "event"
    },
    {
      "anonymous": false,
      "inputs": [
        {
          "indexed": true,
          "internalType": "bytes32",
          "name": "role",
          "type": "bytes32"
        },
        {
          "indexed": true,
          "internalType": "bytes32",
          "name": "previousAdminRole",
          "type": "bytes32"
        },
        {
          "indexed": true,
          "internalType": "bytes32",
          "name": "newAdminRole",
          "type": "bytes32"
        }
      ],
      "name": "RoleAdminChanged",
      "type": "event"
    },
    {
      "anonymous": false,
      "inputs": [
        {
          "indexed": true,
          "internalType": "bytes32",
          "name": "role",
          "type": "bytes32"
        },
        {
          "indexed": true,
          "internalType": "address",
          "name": "account",
          "type": "address"
        },
        {
          "indexed": true,
          "internalType": "address",
          "name": "sender",
          "type": "address"
        }
      ],
      "name": "RoleGranted",
      "type": "event"
    },
    {
      "anonymous": false,
      "inputs": [
        {
          "indexed": true,
          "internalType": "bytes32",
          "name": "role",
          "type": "bytes32"
        },
        {
          "indexed": true,
          "internalType": "address",
          "name": "account",
          "type": "address"
        },
        {
          "indexed": true,
          "internalType": "address",
          "name": "sender",
          "type": "address"
        }
      ],
      "name": "RoleRevoked",
      "type": "event"
    },
    {
      "anonymous": false,
      "inputs": [
        {
          "indexed": true,
          "internalType": "address",
          "name": "from",
          "type": "address"
        },
        {
          "indexed": true,
          "internalType": "address",
          "name": "to",
          "type": "address"
        },
        {
          "indexed": false,
          "internalType": "uint256",
          "name": "value",
          "type": "uint256"
        }
      ],
      "name": "Transfer",
      "type": "event"
    },
    {
      "anonymous": false,
      "inputs": [
        {
          "indexed": false,
          "internalType": "address",
          "name": "account",
          "type": "address"
        }
      ],
      "name": "Unpaused",
      "type": "event"
    },
    {
      "stateMutability": "payable",
      "type": "fallback"
    },
    {
      "inputs": [],
      "name": "BURNER_ROLE",
      "outputs": [
        {
          "internalType": "bytes32",
          "name": "",
          "type": "bytes32"
        }
      ],
      "stateMutability": "view",
      "type": "function"
    },
    {
      "inputs": [],
      "name": "DEFAULT_ADMIN_ROLE",
      "outputs": [
        {
          "internalType": "bytes32",
          "name": "",
          "type": "bytes32"
        }
      ],
      "stateMutability": "view",
      "type": "function"
    },
    {
      "inputs": [],
      "name": "MINTER_ROLE",
      "outputs": [
        {
          "internalType": "bytes32",
          "name": "",
          "type": "bytes32"
        }
      ],
      "stateMutability": "view",
      "type": "function"
    },
    {
      "inputs": [],
      "name": "PAUSER_ROLE",
      "outputs": [
        {
          "internalType": "bytes32",
          "name": "",
          "type": "bytes32"
        }
      ],
      "stateMutability": "view",
      "type": "function"
    },
    {
      "inputs": [
        {
          "internalType": "address",
          "name": "owner",
          "type": "address"
        },
        {
          "internalType": "address",
          "name": "spender",
          "type": "address"
        }
      ],
      "name": "allowance",
      "outputs": [
        {
          "internalType": "uint256",
          "name": "",
          "type": "uint256"
        }
      ],
      "stateMutability": "view",
      "type": "function"
    },
    {
      "inputs": [
        {
          "internalType": "address",
          "name": "spender",
          "type": "address"
        },
        {
          "internalType": "uint256",
          "name": "amount",
          "type": "uint256"
        }
      ],
      "name": "approve",
      "outputs": [
        {
          "internalType": "bool",
          "name": "",
          "type": "bool"
        }
      ],
      "stateMutability": "nonpayable",
      "type": "function"
    },
    {
      "inputs": [
        {
          "internalType": "address",
          "name": "account",
          "type": "address"
        }
      ],
      "name": "balanceOf",
      "outputs": [
        {
          "internalType": "uint256",
          "name": "",
          "type": "uint256"
        }
      ],
      "stateMutability": "view",
      "type": "function"
    },
    {
      "inputs": [
        {
          "internalType": "uint256",
          "name": "value",
          "type": "uint256"
        }
      ],
      "name": "burn",
      "outputs": [],
      "stateMutability": "nonpayable",
      "type": "function"
    },
    {
      "inputs": [
        {
          "internalType": "address",
          "name": "account",
          "type": "address"
        },
        {
          "internalType": "uint256",
          "name": "amount",
          "type": "uint256"
        }
      ],
      "name": "burnFrom",
      "outputs": [],
      "stateMutability": "nonpayable",
      "type": "function"
    },
    {
      "inputs": [],
      "name": "decimals",
      "outputs": [
        {
          "internalType": "uint8",
          "name": "",
          "type": "uint8"
        }
      ],
      "stateMutability": "view",
      "type": "function"
    },
    {
      "inputs": [
        {
          "internalType": "address",
          "name": "spender",
          "type": "address"
        },
        {
          "internalType": "uint256",
          "name": "subtractedValue",
          "type": "uint256"
        }
      ],
      "name": "decreaseAllowance",
      "outputs": [
        {
          "internalType": "bool",
          "name": "",
          "type": "bool"
        }
      ],
      "stateMutability": "nonpayable",
      "type": "function"
    },
    {
      "inputs": [
        {
          "internalType": "bytes32",
          "name": "role",
          "type": "bytes32"
        }
      ],
      "name": "getRoleAdmin",
      "outputs": [
        {
          "internalType": "bytes32",
          "name": "",
          "type": "bytes32"
        }
      ],
      "stateMutability": "view",
      "type": "function"
    },
    {
      "inputs": [
        {
          "internalType": "bytes32",
          "name": "role",
          "type": "bytes32"
        },
        {
          "internalType": "uint256",
          "name": "index",
          "type": "uint256"
        }
      ],
      "name": "getRoleMember",
      "outputs": [
        {
          "internalType": "address",
          "name": "",
          "type": "address"
        }
      ],
      "stateMutability": "view",
      "type": "function"
    },
    {
      "inputs": [
        {
          "internalType": "bytes32",
          "name": "role",
          "type": "bytes32"
        }
      ],
      "name": "getRoleMemberCount",
      "outputs": [
        {
          "internalType": "uint256",
          "name": "",
          "type": "uint256"
        }
      ],
      "stateMutability": "view",
      "type": "function"
    },
    {
      "inputs": [
        {
          "internalType": "bytes32",
          "name": "role",
          "type": "bytes32"
        },
        {
          "internalType": "address",
          "name": "account",
          "type": "address"
        }
      ],
      "name": "grantRole",
      "outputs": [],
      "stateMutability": "nonpayable",
      "type": "function"
    },
    {
      "inputs": [
        {
          "internalType": "bytes32",
          "name": "role",
          "type": "bytes32"
        },
        {
          "internalType": "address",
          "name": "account",
          "type": "address"
        }
      ],
      "name": "hasRole",
      "outputs": [
        {
          "internalType": "bool",
          "name": "",
          "type": "bool"
        }
      ],
      "stateMutability": "view",
      "type": "function"
    },
    {
      "inputs": [
        {
          "internalType": "address",
          "name": "spender",
          "type": "address"
        },
        {
          "internalType": "uint256",
          "name": "addedValue",
          "type": "uint256"
        }
      ],
      "name": "increaseAllowance",
      "outputs": [
        {
          "internalType": "bool",
          "name": "",
          "type": "bool"
        }
      ],
      "stateMutability": "nonpayable",
      "type": "function"
    },
    {
      "inputs": [
        {
          "internalType": "address",
          "name": "to",
          "type": "address"
        },
        {
          "internalType": "uint256",
          "name": "amount",
          "type": "uint256"
        }
      ],
      "name": "mint",
      "outputs": [],
      "stateMutability": "nonpayable",
      "type": "function"
    },
    {
      "inputs": [],
      "name": "name",
      "outputs": [
        {
          "internalType": "string",
          "name": "",
          "type": "string"
        }
      ],
      "stateMutability": "view",
      "type": "function"
    },
    {
      "inputs": [],
      "name": "pause",
      "outputs": [],
      "stateMutability": "nonpayable",
      "type": "function"
    },
    {
      "inputs": [],
      "name": "paused",
      "outputs": [
        {
          "internalType": "bool",
          "name": "",
          "type": "bool"
        }
      ],
      "stateMutability": "view",
      "type": "function"
    },
    {
      "inputs": [
        {
          "internalType": "bytes32",
          "name": "role",
          "type": "bytes32"
        },
        {
          "internalType": "address",
          "name": "account",
          "type": "address"
        }
      ],
      "name": "renounceRole",
      "outputs": [],
      "stateMutability": "nonpayable",
      "type": "function"
    },
    {
      "inputs": [
        {
          "internalType": "bytes32",
          "name": "role",
          "type": "bytes32"
        },
        {
          "internalType": "address",
          "name": "account",
          "type": "address"
        }
      ],
      "name": "revokeRole",
      "outputs": [],
      "stateMutability": "nonpayable",
      "type": "function"
    },
    {
      "inputs": [
        {
          "internalType": "bytes4",
          "name": "interfaceId",
          "type": "bytes4"
        }
      ],
      "name": "supportsInterface",
      "outputs": [
        {
          "internalType": "bool",
          "name": "",
          "type": "bool"
        }
      ],
      "stateMutability": "view",
      "type": "function"
    },
    {
      "inputs": [],
      "name": "symbol",
      "outputs": [
        {
          "internalType": "string",
          "name": "",
          "type": "string"
        }
      ],
      "stateMutability": "view",
      "type": "function"
    },
    {
      "inputs": [],
      "name": "totalSupply",
      "outputs": [
        {
          "internalType": "uint256",
          "name": "",
          "type": "uint256"
        }
      ],
      "stateMutability": "view",
      "type": "function"
    },
    {
      "inputs": [
        {
          "internalType": "address",
          "name": "recipient",
          "type": "address"
        },
        {
          "internalType": "uint256",
          "name": "amount",
          "type": "uint256"
        }
      ],
      "name": "transfer",
      "outputs": [
        {
          "internalType": "bool",
          "name": "",
          "type": "bool"
        }
      ],
      "stateMutability": "nonpayable",
      "type": "function"
    },
    {
      "inputs": [
        {
          "internalType": "address",
          "name": "sender",
          "type": "address"
        },
        {
          "internalType": "address",
          "name": "recipient",
          "type": "address"
        },
        {
          "internalType": "uint256",
          "name": "amount",
          "type": "uint256"
        }
      ],
      "name": "transferFrom",
      "outputs": [
        {
          "internalType": "bool",
          "name": "",
          "type": "bool"
        }
      ],
      "stateMutability": "nonpayable",
      "type": "function"
    },
    {
      "inputs": [],
      "name": "unpause",
      "outputs": [],
      "stateMutability": "nonpayable",
      "type": "function"
    },
    {
      "stateMutability": "payable",
      "type": "receive"
    }
  ],
  "bytecode": "0x60806040523480156200001157600080fd5b506040518060400160405280600a81526020017f426c756520546f6b656e000000000000000000000000000000000000000000008152506040518060400160405280600381526020017f424c550000000000000000000000000000000000000000000000000000000000815250818181600590805190602001906200009892919062000ac5565b508060069080519060200190620000b192919062000ac5565b5050506000600760006101000a81548160ff021916908315150217905550620000f36000801b620000e7620001cc60201b60201c565b620001d460201b60201c565b620001347f9f2df0fed2c77648de5860a4cc508cd0818c85b8b8a1ab4ceeef8d981c8956a662000128620001cc60201b60201c565b620001d460201b60201c565b620001757f65d7a28e3265b37a6474929f336521b332c1681b933f6cb9f3376673440d862a62000169620001cc60201b60201c565b620001d460201b60201c565b505062000194336a084595161401484a000000620001ea60201b60201c565b620001c67f3c11d16cbaffd01df69ce1c404f6340ee057498f5f00246190ea54220576a848336200036460201b60201c565b62001096565b600033905090565b620001e68282620003ad60201b60201c565b5050565b600073ffffffffffffffffffffffffffffffffffffffff168273ffffffffffffffffffffffffffffffffffffffff1614156200025d576040517f08c379a0000000000000000000000000000000000000000000000000000000008152600401620002549062000d49565b60405180910390fd5b6200027160008383620003f560201b60201c565b806004600082825462000285919062000dd1565b9250508190555080600260008473ffffffffffffffffffffffffffffffffffffffff1673ffffffffffffffffffffffffffffffffffffffff1681526020019081526020016000206000828254620002dd919062000dd1565b925050819055508173ffffffffffffffffffffffffffffffffffffffff16600073ffffffffffffffffffffffffffffffffffffffff167fddf252ad1be2c89b69c2b068fc378daa952ba7f163c4a11628f55a4df523b3ef8360405162000344919062000d8d565b60405180910390a362000360600083836200041260201b60201c565b5050565b62000375826200041760201b60201c565b62000396816200038a620001cc60201b60201c565b6200043660201b60201c565b620003a88383620003ad60201b60201c565b505050565b620003c48282620004fa60201b6200110c1760201c565b620003f08160016000858152602001908152602001600020620005eb60201b620011ec1790919060201c565b505050565b6200040d8383836200062360201b6200121c1760201c565b505050565b505050565b6000806000838152602001908152602001600020600101549050919050565b6200044882826200069360201b60201c565b620004f6576200047b8173ffffffffffffffffffffffffffffffffffffffff166014620006fd60201b620012741760201c565b620004968360001c6020620006fd60201b620012741760201c565b604051602001620004a992919062000cc1565b6040516020818303038152906040526040517f08c379a0000000000000000000000000000000000000000000000000000000008152600401620004ed919062000d03565b60405180910390fd5b5050565b6200050c82826200069360201b60201c565b620005e757600160008084815260200190815260200160002060000160008373ffffffffffffffffffffffffffffffffffffffff1673ffffffffffffffffffffffffffffffffffffffff16815260200190815260200160002060006101000a81548160ff0219169083151502179055506200058c620001cc60201b60201c565b73ffffffffffffffffffffffffffffffffffffffff168173ffffffffffffffffffffffffffffffffffffffff16837f2f8788117e7eff1d82e926ec794901d17c78024a50270940304540a733656f0d60405160405180910390a45b5050565b60006200061b836000018373ffffffffffffffffffffffffffffffffffffffff1660001b62000a0c60201b60201c565b905092915050565b6200063b83838362000a8660201b6200156e1760201c565b6200064b62000a8b60201b60201c565b156200068e576040517f08c379a0000000000000000000000000000000000000000000000000000000008152600401620006859062000d6b565b60405180910390fd5b505050565b600080600084815260200190815260200160002060000160008373ffffffffffffffffffffffffffffffffffffffff1673ffffffffffffffffffffffffffffffffffffffff16815260200190815260200160002060009054906101000a900460ff16905092915050565b60606000600283600262000712919062000e2e565b6200071e919062000dd1565b67ffffffffffffffff8111156200075e577f4e487b7100000000000000000000000000000000000000000000000000000000600052604160045260246000fd5b6040519080825280601f01601f191660200182016040528015620007915781602001600182028036833780820191505090505b5090507f300000000000000000000000000000000000000000000000000000000000000081600081518110620007f0577f4e487b7100000000000000000000000000000000000000000000000000000000600052603260045260246000fd5b60200101907effffffffffffffffffffffffffffffffffffffffffffffffffffffffffffff1916908160001a9053507f7800000000000000000000000000000000000000000000000000000000000000816001815181106200087b577f4e487b7100000000000000000000000000000000000000000000000000000000600052603260045260246000fd5b60200101907effffffffffffffffffffffffffffffffffffffffffffffffffffffffffffff1916908160001a90535060006001846002620008bd919062000e2e565b620008c9919062000dd1565b90505b6001811115620009bb577f3031323334353637383961626364656600000000000000000000000000000000600f86166010811062000933577f4e487b7100000000000000000000000000000000000000000000000000000000600052603260045260246000fd5b1a60f81b82828151811062000971577f4e487b7100000000000000000000000000000000000000000000000000000000600052603260045260246000fd5b60200101907effffffffffffffffffffffffffffffffffffffffffffffffffffffffffffff1916908160001a905350600485901c945080620009b39062000ecf565b9050620008cc565b506000841462000a02576040517f08c379a0000000000000000000000000000000000000000000000000000000008152600401620009f99062000d27565b60405180910390fd5b8091505092915050565b600062000a20838362000aa260201b60201c565b62000a7b57826000018290806001815401808255809150506001900390600052602060002001600090919091909150558260000180549050836001016000848152602001908152602001600020819055506001905062000a80565b600090505b92915050565b505050565b6000600760009054906101000a900460ff16905090565b600080836001016000848152602001908152602001600020541415905092915050565b82805462000ad39062000efe565b90600052602060002090601f01602090048101928262000af7576000855562000b43565b82601f1062000b1257805160ff191683800117855562000b43565b8280016001018555821562000b43579182015b8281111562000b4257825182559160200191906001019062000b25565b5b50905062000b52919062000b56565b5090565b5b8082111562000b7157600081600090555060010162000b57565b5090565b600062000b828262000daa565b62000b8e818562000db5565b935062000ba081856020860162000e99565b62000bab8162000f92565b840191505092915050565b600062000bc38262000daa565b62000bcf818562000dc6565b935062000be181856020860162000e99565b80840191505092915050565b600062000bfc60208362000db5565b915062000c098262000fa3565b602082019050919050565b600062000c2360178362000dc6565b915062000c308262000fcc565b601782019050919050565b600062000c4a60118362000dc6565b915062000c578262000ff5565b601182019050919050565b600062000c71601f8362000db5565b915062000c7e826200101e565b602082019050919050565b600062000c98602a8362000db5565b915062000ca58262001047565b604082019050919050565b62000cbb8162000e8f565b82525050565b600062000cce8262000c14565b915062000cdc828562000bb6565b915062000ce98262000c3b565b915062000cf7828462000bb6565b91508190509392505050565b6000602082019050818103600083015262000d1f818462000b75565b905092915050565b6000602082019050818103600083015262000d428162000bed565b9050919050565b6000602082019050818103600083015262000d648162000c62565b9050919050565b6000602082019050818103600083015262000d868162000c89565b9050919050565b600060208201905062000da4600083018462000cb0565b92915050565b600081519050919050565b600082825260208201905092915050565b600081905092915050565b600062000dde8262000e8f565b915062000deb8362000e8f565b9250827fffffffffffffffffffffffffffffffffffffffffffffffffffffffffffffffff0382111562000e235762000e2262000f34565b5b828201905092915050565b600062000e3b8262000e8f565b915062000e488362000e8f565b9250817fffffffffffffffffffffffffffffffffffffffffffffffffffffffffffffffff048311821515161562000e845762000e8362000f34565b5b828202905092915050565b6000819050919050565b60005b8381101562000eb957808201518184015260208101905062000e9c565b8381111562000ec9576000848401525b50505050565b600062000edc8262000e8f565b9150600082141562000ef35762000ef262000f34565b5b600182039050919050565b6000600282049050600182168062000f1757607f821691505b6020821081141562000f2e5762000f2d62000f63565b5b50919050565b7f4e487b7100000000000000000000000000000000000000000000000000000000600052601160045260246000fd5b7f4e487b7100000000000000000000000000000000000000000000000000000000600052602260045260246000fd5b6000601f19601f8301169050919050565b7f537472696e67733a20686578206c656e67746820696e73756666696369656e74600082015250565b7f416363657373436f6e74726f6c3a206163636f756e7420000000000000000000600082015250565b7f206973206d697373696e6720726f6c6520000000000000000000000000000000600082015250565b7f45524332303a206d696e7420746f20746865207a65726f206164647265737300600082015250565b7f45524332305061757361626c653a20746f6b656e207472616e7366657220776860008201527f696c652070617573656400000000000000000000000000000000000000000000602082015250565b6135cd80620010a66000396000f3fe6080604052600436106101c65760003560e01c80635c975abb116100f7578063a217fddf11610095578063d539139311610064578063d53913931461069c578063d547741f146106c7578063dd62ed3e146106f0578063e63ab1e91461072d576101d0565b8063a217fddf146105ba578063a457c2d7146105e5578063a9059cbb14610622578063ca15c8731461065f576101d0565b80638456cb59116100d15780638456cb59146104fe5780639010d07c1461051557806391d148541461055257806395d89b411461058f576101d0565b80635c975abb1461046d57806370a082311461049857806379cc6790146104d5576101d0565b80632f2ff15d11610164578063395093511161013e57806339509351146103c75780633f4ba83a1461040457806340c10f191461041b57806342966c6814610444576101d0565b80632f2ff15d1461034a578063313ce5671461037357806336568abe1461039e576101d0565b806318160ddd116101a057806318160ddd1461027a57806323b872dd146102a5578063248a9ca3146102e2578063282c51f31461031f576101d0565b806301ffc9a7146101d557806306fdde0314610212578063095ea7b31461023d576101d0565b366101d057600080fd5b600080fd5b3480156101e157600080fd5b506101fc60048036038101906101f791906125e7565b610758565b6040516102099190612a22565b60405180910390f35b34801561021e57600080fd5b506102276107d2565b6040516102349190612a58565b60405180910390f35b34801561024957600080fd5b50610264600480360381019061025f919061250a565b610864565b6040516102719190612a22565b60405180910390f35b34801561028657600080fd5b5061028f610882565b60405161029c9190612cda565b60405180910390f35b3480156102b157600080fd5b506102cc60048036038101906102c791906124bb565b61088c565b6040516102d99190612a22565b60405180910390f35b3480156102ee57600080fd5b5061030960048036038101906103049190612546565b610984565b6040516103169190612a3d565b60405180910390f35b34801561032b57600080fd5b506103346109a3565b6040516103419190612a3d565b60405180910390f35b34801561035657600080fd5b50610371600480360381019061036c919061256f565b6109c7565b005b34801561037f57600080fd5b506103886109f0565b6040516103959190612cf5565b60405180910390f35b3480156103aa57600080fd5b506103c560048036038101906103c0919061256f565b6109f9565b005b3480156103d357600080fd5b506103ee60048036038101906103e9919061250a565b610a7c565b6040516103fb9190612a22565b60405180910390f35b34801561041057600080fd5b50610419610b28565b005b34801561042757600080fd5b50610442600480360381019061043d919061250a565b610ba2565b005b34801561045057600080fd5b5061046b60048036038101906104669190612610565b610c20565b005b34801561047957600080fd5b50610482610c60565b60405161048f9190612a22565b60405180910390f35b3480156104a457600080fd5b506104bf60048036038101906104ba9190612456565b610c77565b6040516104cc9190612cda565b60405180910390f35b3480156104e157600080fd5b506104fc60048036038101906104f7919061250a565b610cc0565b005b34801561050a57600080fd5b50610513610d3b565b005b34801561052157600080fd5b5061053c600480360381019061053791906125ab565b610db5565b6040516105499190612a07565b60405180910390f35b34801561055e57600080fd5b506105796004803603810190610574919061256f565b610de4565b6040516105869190612a22565b60405180910390f35b34801561059b57600080fd5b506105a4610e4e565b6040516105b19190612a58565b60405180910390f35b3480156105c657600080fd5b506105cf610ee0565b6040516105dc9190612a3d565b60405180910390f35b3480156105f157600080fd5b5061060c6004803603810190610607919061250a565b610ee7565b6040516106199190612a22565b60405180910390f35b34801561062e57600080fd5b506106496004803603810190610644919061250a565b610fd2565b6040516106569190612a22565b60405180910390f35b34801561066b57600080fd5b5061068660048036038101906106819190612546565b610ff0565b6040516106939190612cda565b60405180910390f35b3480156106a857600080fd5b506106b1611014565b6040516106be9190612a3d565b60405180910390f35b3480156106d357600080fd5b506106ee60048036038101906106e9919061256f565b611038565b005b3480156106fc57600080fd5b506107176004803603810190610712919061247f565b611061565b6040516107249190612cda565b60405180910390f35b34801561073957600080fd5b506107426110e8565b60405161074f9190612a3d565b60405180910390f35b60007f5a05180f000000000000000000000000000000000000000000000000000000007bffffffffffffffffffffffffffffffffffffffffffffffffffffffff1916827bffffffffffffffffffffffffffffffffffffffffffffffffffffffff191614806107cb57506107ca82611573565b5b9050919050565b6060600580546107e190612f03565b80601f016020809104026020016040519081016040528092919081815260200182805461080d90612f03565b801561085a5780601f1061082f5761010080835404028352916020019161085a565b820191906000526020600020905b81548152906001019060200180831161083d57829003601f168201915b5050505050905090565b60006108786108716115ed565b84846115f5565b6001905092915050565b6000600454905090565b60006108998484846117c0565b6000600360008673ffffffffffffffffffffffffffffffffffffffff1673ffffffffffffffffffffffffffffffffffffffff16815260200190815260200160002060006108e46115ed565b73ffffffffffffffffffffffffffffffffffffffff1673ffffffffffffffffffffffffffffffffffffffff16815260200190815260200160002054905082811015610964576040517f08c379a000000000000000000000000000000000000000000000000000000000815260040161095b90612b7a565b60405180910390fd5b610978856109706115ed565b8584036115f5565b60019150509392505050565b6000806000838152602001908152602001600020600101549050919050565b7f3c11d16cbaffd01df69ce1c404f6340ee057498f5f00246190ea54220576a84881565b6109d082610984565b6109e1816109dc6115ed565b611a44565b6109eb8383611ae1565b505050565b60006012905090565b610a016115ed565b73ffffffffffffffffffffffffffffffffffffffff168173ffffffffffffffffffffffffffffffffffffffff1614610a6e576040517f08c379a0000000000000000000000000000000000000000000000000000000008152600401610a6590612c7a565b60405180910390fd5b610a788282611b15565b5050565b6000610b1e610a896115ed565b848460036000610a976115ed565b73ffffffffffffffffffffffffffffffffffffffff1673ffffffffffffffffffffffffffffffffffffffff16815260200190815260200160002060008873ffffffffffffffffffffffffffffffffffffffff1673ffffffffffffffffffffffffffffffffffffffff16815260200190815260200160002054610b199190612d37565b6115f5565b6001905092915050565b610b597f65d7a28e3265b37a6474929f336521b332c1681b933f6cb9f3376673440d862a610b546115ed565b610de4565b610b98576040517f08c379a0000000000000000000000000000000000000000000000000000000008152600401610b8f90612afa565b60405180910390fd5b610ba0611b49565b565b610bd37f9f2df0fed2c77648de5860a4cc508cd0818c85b8b8a1ab4ceeef8d981c8956a6610bce6115ed565b610de4565b610c12576040517f08c379a0000000000000000000000000000000000000000000000000000000008152600401610c0990612b9a565b60405180910390fd5b610c1c8282611beb565b5050565b7f3c11d16cbaffd01df69ce1c404f6340ee057498f5f00246190ea54220576a848610c5281610c4d6115ed565b611a44565b610c5c3383611d4c565b5050565b6000600760009054906101000a900460ff16905090565b6000600260008373ffffffffffffffffffffffffffffffffffffffff1673ffffffffffffffffffffffffffffffffffffffff168152602001908152602001600020549050919050565b6000610cd383610cce6115ed565b611061565b905081811015610d18576040517f08c379a0000000000000000000000000000000000000000000000000000000008152600401610d0f90612bba565b60405180910390fd5b610d2c83610d246115ed565b8484036115f5565b610d368383611d4c565b505050565b610d6c7f65d7a28e3265b37a6474929f336521b332c1681b933f6cb9f3376673440d862a610d676115ed565b610de4565b610dab576040517f08c379a0000000000000000000000000000000000000000000000000000000008152600401610da290612c3a565b60405180910390fd5b610db3611f25565b565b6000610ddc8260016000868152602001908152602001600020611fc890919063ffffffff16565b905092915050565b600080600084815260200190815260200160002060000160008373ffffffffffffffffffffffffffffffffffffffff1673ffffffffffffffffffffffffffffffffffffffff16815260200190815260200160002060009054906101000a900460ff16905092915050565b606060068054610e5d90612f03565b80601f0160208091040260200160405190810160405280929190818152602001828054610e8990612f03565b8015610ed65780601f10610eab57610100808354040283529160200191610ed6565b820191906000526020600020905b815481529060010190602001808311610eb957829003601f168201915b5050505050905090565b6000801b81565b60008060036000610ef66115ed565b73ffffffffffffffffffffffffffffffffffffffff1673ffffffffffffffffffffffffffffffffffffffff16815260200190815260200160002060008573ffffffffffffffffffffffffffffffffffffffff1673ffffffffffffffffffffffffffffffffffffffff16815260200190815260200160002054905082811015610fb3576040517f08c379a0000000000000000000000000000000000000000000000000000000008152600401610faa90612c5a565b60405180910390fd5b610fc7610fbe6115ed565b858584036115f5565b600191505092915050565b6000610fe6610fdf6115ed565b84846117c0565b6001905092915050565b600061100d60016000848152602001908152602001600020611fe2565b9050919050565b7f9f2df0fed2c77648de5860a4cc508cd0818c85b8b8a1ab4ceeef8d981c8956a681565b61104182610984565b6110528161104d6115ed565b611a44565b61105c8383611b15565b505050565b6000600360008473ffffffffffffffffffffffffffffffffffffffff1673ffffffffffffffffffffffffffffffffffffffff16815260200190815260200160002060008373ffffffffffffffffffffffffffffffffffffffff1673ffffffffffffffffffffffffffffffffffffffff16815260200190815260200160002054905092915050565b7f65d7a28e3265b37a6474929f336521b332c1681b933f6cb9f3376673440d862a81565b6111168282610de4565b6111e857600160008084815260200190815260200160002060000160008373ffffffffffffffffffffffffffffffffffffffff1673ffffffffffffffffffffffffffffffffffffffff16815260200190815260200160002060006101000a81548160ff02191690831515021790555061118d6115ed565b73ffffffffffffffffffffffffffffffffffffffff168173ffffffffffffffffffffffffffffffffffffffff16837f2f8788117e7eff1d82e926ec794901d17c78024a50270940304540a733656f0d60405160405180910390a45b5050565b6000611214836000018373ffffffffffffffffffffffffffffffffffffffff1660001b611ff7565b905092915050565b61122783838361156e565b61122f610c60565b1561126f576040517f08c379a000000000000000000000000000000000000000000000000000000000815260040161126690612cba565b60405180910390fd5b505050565b6060600060028360026112879190612d8d565b6112919190612d37565b67ffffffffffffffff8111156112d0577f4e487b7100000000000000000000000000000000000000000000000000000000600052604160045260246000fd5b6040519080825280601f01601f1916602001820160405280156113025781602001600182028036833780820191505090505b5090507f300000000000000000000000000000000000000000000000000000000000000081600081518110611360577f4e487b7100000000000000000000000000000000000000000000000000000000600052603260045260246000fd5b60200101907effffffffffffffffffffffffffffffffffffffffffffffffffffffffffffff1916908160001a9053507f7800000000000000000000000000000000000000000000000000000000000000816001815181106113ea577f4e487b7100000000000000000000000000000000000000000000000000000000600052603260045260246000fd5b60200101907effffffffffffffffffffffffffffffffffffffffffffffffffffffffffffff1916908160001a9053506000600184600261142a9190612d8d565b6114349190612d37565b90505b6001811115611520577f3031323334353637383961626364656600000000000000000000000000000000600f86166010811061149c577f4e487b7100000000000000000000000000000000000000000000000000000000600052603260045260246000fd5b1a60f81b8282815181106114d9577f4e487b7100000000000000000000000000000000000000000000000000000000600052603260045260246000fd5b60200101907effffffffffffffffffffffffffffffffffffffffffffffffffffffffffffff1916908160001a905350600485901c94508061151990612ed9565b9050611437565b5060008414611564576040517f08c379a000000000000000000000000000000000000000000000000000000000815260040161155b90612a7a565b60405180910390fd5b8091505092915050565b505050565b60007f7965db0b000000000000000000000000000000000000000000000000000000007bffffffffffffffffffffffffffffffffffffffffffffffffffffffff1916827bffffffffffffffffffffffffffffffffffffffffffffffffffffffff191614806115e657506115e582612067565b5b9050919050565b600033905090565b600073ffffffffffffffffffffffffffffffffffffffff168373ffffffffffffffffffffffffffffffffffffffff161415611665576040517f08c379a000000000000000000000000000000000000000000000000000000000815260040161165c90612c1a565b60405180910390fd5b600073ffffffffffffffffffffffffffffffffffffffff168273ffffffffffffffffffffffffffffffffffffffff1614156116d5576040517f08c379a00000000000000000000000000000000000000000000000000000000081526004016116cc90612b1a565b60405180910390fd5b80600360008573ffffffffffffffffffffffffffffffffffffffff1673ffffffffffffffffffffffffffffffffffffffff16815260200190815260200160002060008473ffffffffffffffffffffffffffffffffffffffff1673ffffffffffffffffffffffffffffffffffffffff168152602001908152602001600020819055508173ffffffffffffffffffffffffffffffffffffffff168373ffffffffffffffffffffffffffffffffffffffff167f8c5be1e5ebec7d5bd14f71427d1e84f3dd0314c0f7b2291e5b200ac8c7c3b925836040516117b39190612cda565b60405180910390a3505050565b600073ffffffffffffffffffffffffffffffffffffffff168373ffffffffffffffffffffffffffffffffffffffff161415611830576040517f08c379a000000000000000000000000000000000000000000000000000000000815260040161182790612bfa565b60405180910390fd5b600073ffffffffffffffffffffffffffffffffffffffff168273ffffffffffffffffffffffffffffffffffffffff1614156118a0576040517f08c379a000000000000000000000000000000000000000000000000000000000815260040161189790612a9a565b60405180910390fd5b6118ab8383836120d1565b6000600260008573ffffffffffffffffffffffffffffffffffffffff1673ffffffffffffffffffffffffffffffffffffffff16815260200190815260200160002054905081811015611932576040517f08c379a000000000000000000000000000000000000000000000000000000000815260040161192990612b3a565b60405180910390fd5b818103600260008673ffffffffffffffffffffffffffffffffffffffff1673ffffffffffffffffffffffffffffffffffffffff1681526020019081526020016000208190555081600260008573ffffffffffffffffffffffffffffffffffffffff1673ffffffffffffffffffffffffffffffffffffffff16815260200190815260200160002060008282546119c79190612d37565b925050819055508273ffffffffffffffffffffffffffffffffffffffff168473ffffffffffffffffffffffffffffffffffffffff167fddf252ad1be2c89b69c2b068fc378daa952ba7f163c4a11628f55a4df523b3ef84604051611a2b9190612cda565b60405180910390a3611a3e8484846120e1565b50505050565b611a4e8282610de4565b611add57611a738173ffffffffffffffffffffffffffffffffffffffff166014611274565b611a818360001c6020611274565b604051602001611a929291906129cd565b6040516020818303038152906040526040517f08c379a0000000000000000000000000000000000000000000000000000000008152600401611ad49190612a58565b60405180910390fd5b5050565b611aeb828261110c565b611b1081600160008581526020019081526020016000206111ec90919063ffffffff16565b505050565b611b1f82826120e6565b611b4481600160008581526020019081526020016000206121c790919063ffffffff16565b505050565b611b51610c60565b611b90576040517f08c379a0000000000000000000000000000000000000000000000000000000008152600401611b8790612aba565b60405180910390fd5b6000600760006101000a81548160ff0219169083151502179055507f5db9ee0a495bf2e6ff9c91a7834c1ba4fdd244a5e8aa4e537bd38aeae4b073aa611bd46115ed565b604051611be19190612a07565b60405180910390a1565b600073ffffffffffffffffffffffffffffffffffffffff168273ffffffffffffffffffffffffffffffffffffffff161415611c5b576040517f08c379a0000000000000000000000000000000000000000000000000000000008152600401611c5290612c9a565b60405180910390fd5b611c67600083836120d1565b8060046000828254611c799190612d37565b9250508190555080600260008473ffffffffffffffffffffffffffffffffffffffff1673ffffffffffffffffffffffffffffffffffffffff1681526020019081526020016000206000828254611ccf9190612d37565b925050819055508173ffffffffffffffffffffffffffffffffffffffff16600073ffffffffffffffffffffffffffffffffffffffff167fddf252ad1be2c89b69c2b068fc378daa952ba7f163c4a11628f55a4df523b3ef83604051611d349190612cda565b60405180910390a3611d48600083836120e1565b5050565b600073ffffffffffffffffffffffffffffffffffffffff168273ffffffffffffffffffffffffffffffffffffffff161415611dbc576040517f08c379a0000000000000000000000000000000000000000000000000000000008152600401611db390612bda565b60405180910390fd5b611dc8826000836120d1565b6000600260008473ffffffffffffffffffffffffffffffffffffffff1673ffffffffffffffffffffffffffffffffffffffff16815260200190815260200160002054905081811015611e4f576040517f08c379a0000000000000000000000000000000000000000000000000000000008152600401611e4690612ada565b60405180910390fd5b818103600260008573ffffffffffffffffffffffffffffffffffffffff1673ffffffffffffffffffffffffffffffffffffffff168152602001908152602001600020819055508160046000828254611ea79190612de7565b92505081905550600073ffffffffffffffffffffffffffffffffffffffff168373ffffffffffffffffffffffffffffffffffffffff167fddf252ad1be2c89b69c2b068fc378daa952ba7f163c4a11628f55a4df523b3ef84604051611f0c9190612cda565b60405180910390a3611f20836000846120e1565b505050565b611f2d610c60565b15611f6d576040517f08c379a0000000000000000000000000000000000000000000000000000000008152600401611f6490612b5a565b60405180910390fd5b6001600760006101000a81548160ff0219169083151502179055507f62e78cea01bee320cd4e420270b5ea74000d11b0c9f74754ebdbfc544b05a258611fb16115ed565b604051611fbe9190612a07565b60405180910390a1565b6000611fd783600001836121f7565b60001c905092915050565b6000611ff082600001612248565b9050919050565b60006120038383612259565b61205c578260000182908060018154018082558091505060019003906000526020600020016000909190919091505582600001805490508360010160008481526020019081526020016000208190555060019050612061565b600090505b92915050565b60007f01ffc9a7000000000000000000000000000000000000000000000000000000007bffffffffffffffffffffffffffffffffffffffffffffffffffffffff1916827bffffffffffffffffffffffffffffffffffffffffffffffffffffffff1916149050919050565b6120dc83838361121c565b505050565b505050565b6120f08282610de4565b156121c357600080600084815260200190815260200160002060000160008373ffffffffffffffffffffffffffffffffffffffff1673ffffffffffffffffffffffffffffffffffffffff16815260200190815260200160002060006101000a81548160ff0219169083151502179055506121686115ed565b73ffffffffffffffffffffffffffffffffffffffff168173ffffffffffffffffffffffffffffffffffffffff16837ff6391f5c32d9c69d2a47ea670b442974b53935d1edc7fd64eb21e047a839171b60405160405180910390a45b5050565b60006121ef836000018373ffffffffffffffffffffffffffffffffffffffff1660001b61227c565b905092915050565b6000826000018281548110612235577f4e487b7100000000000000000000000000000000000000000000000000000000600052603260045260246000fd5b9060005260206000200154905092915050565b600081600001805490509050919050565b600080836001016000848152602001908152602001600020541415905092915050565b600080836001016000848152602001908152602001600020549050600081146123f65760006001826122ae9190612de7565b90506000600186600001805490506122c69190612de7565b905081811461238157600086600001828154811061230d577f4e487b7100000000000000000000000000000000000000000000000000000000600052603260045260246000fd5b9060005260206000200154905080876000018481548110612357577f4e487b7100000000000000000000000000000000000000000000000000000000600052603260045260246000fd5b90600052602060002001819055508387600101600083815260200190815260200160002081905550505b856000018054806123bb577f4e487b7100000000000000000000000000000000000000000000000000000000600052603160045260246000fd5b6001900381819060005260206000200160009055905585600101600086815260200190815260200160002060009055600193505050506123fc565b60009150505b92915050565b6000813590506124118161353b565b92915050565b60008135905061242681613552565b92915050565b60008135905061243b81613569565b92915050565b60008135905061245081613580565b92915050565b60006020828403121561246857600080fd5b600061247684828501612402565b91505092915050565b6000806040838503121561249257600080fd5b60006124a085828601612402565b92505060206124b185828601612402565b9150509250929050565b6000806000606084860312156124d057600080fd5b60006124de86828701612402565b93505060206124ef86828701612402565b925050604061250086828701612441565b9150509250925092565b6000806040838503121561251d57600080fd5b600061252b85828601612402565b925050602061253c85828601612441565b9150509250929050565b60006020828403121561255857600080fd5b600061256684828501612417565b91505092915050565b6000806040838503121561258257600080fd5b600061259085828601612417565b92505060206125a185828601612402565b9150509250929050565b600080604083850312156125be57600080fd5b60006125cc85828601612417565b92505060206125dd85828601612441565b9150509250929050565b6000602082840312156125f957600080fd5b60006126078482850161242c565b91505092915050565b60006020828403121561262257600080fd5b600061263084828501612441565b91505092915050565b61264281612e1b565b82525050565b61265181612e2d565b82525050565b61266081612e39565b82525050565b600061267182612d10565b61267b8185612d1b565b935061268b818560208601612ea6565b61269481612f93565b840191505092915050565b60006126aa82612d10565b6126b48185612d2c565b93506126c4818560208601612ea6565b80840191505092915050565b60006126dd602083612d1b565b91506126e882612fa4565b602082019050919050565b6000612700602383612d1b565b915061270b82612fcd565b604082019050919050565b6000612723601483612d1b565b915061272e8261301c565b602082019050919050565b6000612746602283612d1b565b915061275182613045565b604082019050919050565b6000612769603983612d1b565b915061277482613094565b604082019050919050565b600061278c602283612d1b565b9150612797826130e3565b604082019050919050565b60006127af602683612d1b565b91506127ba82613132565b604082019050919050565b60006127d2601083612d1b565b91506127dd82613181565b602082019050919050565b60006127f5602883612d1b565b9150612800826131aa565b604082019050919050565b6000612818603683612d1b565b9150612823826131f9565b604082019050919050565b600061283b602483612d1b565b915061284682613248565b604082019050919050565b600061285e602183612d1b565b915061286982613297565b604082019050919050565b6000612881602583612d1b565b915061288c826132e6565b604082019050919050565b60006128a4602483612d1b565b91506128af82613335565b604082019050919050565b60006128c7603783612d1b565b91506128d282613384565b604082019050919050565b60006128ea601783612d2c565b91506128f5826133d3565b601782019050919050565b600061290d602583612d1b565b9150612918826133fc565b604082019050919050565b6000612930601183612d2c565b915061293b8261344b565b601182019050919050565b6000612953602f83612d1b565b915061295e82613474565b604082019050919050565b6000612976601f83612d1b565b9150612981826134c3565b602082019050919050565b6000612999602a83612d1b565b91506129a4826134ec565b604082019050919050565b6129b881612e8f565b82525050565b6129c781612e99565b82525050565b60006129d8826128dd565b91506129e4828561269f565b91506129ef82612923565b91506129fb828461269f565b91508190509392505050565b6000602082019050612a1c6000830184612639565b92915050565b6000602082019050612a376000830184612648565b92915050565b6000602082019050612a526000830184612657565b92915050565b60006020820190508181036000830152612a728184612666565b905092915050565b60006020820190508181036000830152612a93816126d0565b9050919050565b60006020820190508181036000830152612ab3816126f3565b9050919050565b60006020820190508181036000830152612ad381612716565b9050919050565b60006020820190508181036000830152612af381612739565b9050919050565b60006020820190508181036000830152612b138161275c565b9050919050565b60006020820190508181036000830152612b338161277f565b9050919050565b60006020820190508181036000830152612b53816127a2565b9050919050565b60006020820190508181036000830152612b73816127c5565b9050919050565b60006020820190508181036000830152612b93816127e8565b9050919050565b60006020820190508181036000830152612bb38161280b565b9050919050565b60006020820190508181036000830152612bd38161282e565b9050919050565b60006020820190508181036000830152612bf381612851565b9050919050565b60006020820190508181036000830152612c1381612874565b9050919050565b60006020820190508181036000830152612c3381612897565b9050919050565b60006020820190508181036000830152612c53816128ba565b9050919050565b60006020820190508181036000830152612c7381612900565b9050919050565b60006020820190508181036000830152612c9381612946565b9050919050565b60006020820190508181036000830152612cb381612969565b9050919050565b60006020820190508181036000830152612cd38161298c565b9050919050565b6000602082019050612cef60008301846129af565b92915050565b6000602082019050612d0a60008301846129be565b92915050565b600081519050919050565b600082825260208201905092915050565b600081905092915050565b6000612d4282612e8f565b9150612d4d83612e8f565b9250827fffffffffffffffffffffffffffffffffffffffffffffffffffffffffffffffff03821115612d8257612d81612f35565b5b828201905092915050565b6000612d9882612e8f565b9150612da383612e8f565b9250817fffffffffffffffffffffffffffffffffffffffffffffffffffffffffffffffff0483118215151615612ddc57612ddb612f35565b5b828202905092915050565b6000612df282612e8f565b9150612dfd83612e8f565b925082821015612e1057612e0f612f35565b5b828203905092915050565b6000612e2682612e6f565b9050919050565b60008115159050919050565b6000819050919050565b60007fffffffff0000000000000000000000000000000000000000000000000000000082169050919050565b600073ffffffffffffffffffffffffffffffffffffffff82169050919050565b6000819050919050565b600060ff82169050919050565b60005b83811015612ec4578082015181840152602081019050612ea9565b83811115612ed3576000848401525b50505050565b6000612ee482612e8f565b91506000821415612ef857612ef7612f35565b5b600182039050919050565b60006002820490506001821680612f1b57607f821691505b60208210811415612f2f57612f2e612f64565b5b50919050565b7f4e487b7100000000000000000000000000000000000000000000000000000000600052601160045260246000fd5b7f4e487b7100000000000000000000000000000000000000000000000000000000600052602260045260246000fd5b6000601f19601f8301169050919050565b7f537472696e67733a20686578206c656e67746820696e73756666696369656e74600082015250565b7f45524332303a207472616e7366657220746f20746865207a65726f206164647260008201527f6573730000000000000000000000000000000000000000000000000000000000602082015250565b7f5061757361626c653a206e6f7420706175736564000000000000000000000000600082015250565b7f45524332303a206275726e20616d6f756e7420657863656564732062616c616e60008201527f6365000000000000000000000000000000000000000000000000000000000000602082015250565b7f45524332305072657365744d696e7465725061757365723a206d75737420686160008201527f76652070617573657220726f6c6520746f20756e706175736500000000000000602082015250565b7f45524332303a20617070726f766520746f20746865207a65726f20616464726560008201527f7373000000000000000000000000000000000000000000000000000000000000602082015250565b7f45524332303a207472616e7366657220616d6f756e742065786365656473206260008201527f616c616e63650000000000000000000000000000000000000000000000000000602082015250565b7f5061757361626c653a2070617573656400000000000000000000000000000000600082015250565b7f45524332303a207472616e7366657220616d6f756e742065786365656473206160008201527f6c6c6f77616e6365000000000000000000000000000000000000000000000000602082015250565b7f45524332305072657365744d696e7465725061757365723a206d75737420686160008201527f7665206d696e74657220726f6c6520746f206d696e7400000000000000000000602082015250565b7f45524332303a206275726e20616d6f756e74206578636565647320616c6c6f7760008201527f616e636500000000000000000000000000000000000000000000000000000000602082015250565b7f45524332303a206275726e2066726f6d20746865207a65726f2061646472657360008201527f7300000000000000000000000000000000000000000000000000000000000000602082015250565b7f45524332303a207472616e736665722066726f6d20746865207a65726f20616460008201527f6472657373000000000000000000000000000000000000000000000000000000602082015250565b7f45524332303a20617070726f76652066726f6d20746865207a65726f2061646460008201527f7265737300000000000000000000000000000000000000000000000000000000602082015250565b7f45524332305072657365744d696e7465725061757365723a206d75737420686160008201527f76652070617573657220726f6c6520746f207061757365000000000000000000602082015250565b7f416363657373436f6e74726f6c3a206163636f756e7420000000000000000000600082015250565b7f45524332303a2064656372656173656420616c6c6f77616e63652062656c6f7760008201527f207a65726f000000000000000000000000000000000000000000000000000000602082015250565b7f206973206d697373696e6720726f6c6520000000000000000000000000000000600082015250565b7f416363657373436f6e74726f6c3a2063616e206f6e6c792072656e6f756e636560008201527f20726f6c657320666f722073656c660000000000000000000000000000000000602082015250565b7f45524332303a206d696e7420746f20746865207a65726f206164647265737300600082015250565b7f45524332305061757361626c653a20746f6b656e207472616e7366657220776860008201527f696c652070617573656400000000000000000000000000000000000000000000602082015250565b61354481612e1b565b811461354f57600080fd5b50565b61355b81612e39565b811461356657600080fd5b50565b61357281612e43565b811461357d57600080fd5b50565b61358981612e8f565b811461359457600080fd5b5056fea264697066735822122098671d2f53f3cee502689f5846f6d811299523794ec516888d116fd09e44f8de64736f6c63430008040033",
  "linkReferences": {},
  "deployedLinkReferences": {}
}